:100000000C9463010C948B010C948B010C948B0168
:100010000C948B010C948B010C948B010C948B0130
:100020000C948B010C948B010C948B010C948B0120
:100030000C948B010C948B010C948B010C948B0110
:100040000C94F6040C948B010C948B010C948B0192
:100050000C948B010C948B010C948B010C948B01F0
:100060000C9438030C948B0100083208640896083D
:10007000C808FA082C095E098F09C009F109220A8B
:10008000520A820AB10AE00A0F0B3D0B6B0B980B68
:10009000C50BF10B1C0C470C710C9A0CC30CEB0C30
:1000A000120D390D5F0D830DA70DCA0DED0D0E0E4E
:1000B0002E0E4E0E6C0E8A0EA60EC10EDC0EF50E26
:1000C0000D0F240F3A0F4F0F630F760F870F980F06
:1000D000A70FB50FC20FCD0FD80FE10FE90FF00F2B
:1000E000F50FF90FFD0FFE0FFF0FFE0FFD0FF90FBC
:1000F000F50FF00FE90FE10FD80FCD0FC20FB50FBD
:10010000A70F980F870F760F630F4F0F3A0F240F2B
:100110000D0FF50EDC0EC10EA60E8A0E6C0E4E0EE5
:100120002E0E0E0EED0DCA0DA70D830D5F0D390DB0
:10013000120DEB0CC30C9A0C710C470C1C0CF10B40
:10014000C50B980B6B0B3D0B0F0BE00AB10A820A33
:10015000520A220AF109C0098F095E092C09FA081E
:10016000C8089608640832080008CD079B0769078D
:1001700037070507D306A10670063F060E06DD0504
:10018000AD057D054E051F05F004C2049404670407
:100190003A040E04E303B8038E0365033C0314031F
:1001A000ED02C602A0027C02580235021202F101E1
:1001B000D101B1019301750159013E0123010A01E9
:1001C000F200DB00C500B0009C00890078006700E9
:1001D00058004A003D00320027001E0016000F00A4
:1001E0000A000600020001000000010002000600F3
:1001F0000A000F0016001E00270032003D004A00D2
:1002000058006700780089009C00B000C500DB0042
:10021000F2000A0123013E01590175019301B10168
:10022000D101F1011202350258027C02A002C6027D
:10023000ED0214033C0365038E03B803E3030E04CD
:100240003A0467049404C204F0041F054E057D05BA
:10025000AD05DD050E063F067006A106D3060507AF
:10026000370769079B07CD0700000000240027001F
:100270002A0000000000250028002B0000000000DC
:1002800023002600290004040404040404040202D8
:100290000202020203030303030301020408102005
:1002A0004080010204081020010204081020000010
:1002B0000007000201000003040600000000000027
:1002C00000008D012E0211241FBECFEFD8E0DEBF4B
:1002D000CDBF11E0A0E0B1E0E2ECFBE002C0059090
:1002E0000D92A031B107D9F711E0A0E1B1E001C052
:1002F0001D92AA3DB107E1F712E0C6ECD2E004C0BE
:100300002297FE010E94DB05C23CD107C9F70E947B
:10031000E7040C94DF050C94000080E191E00E945A
:10032000B0010895CF93DF93C0E0D0E0FE01EE0F5F
:10033000FF1FE859FF4F6591749180E191E040E023
:100340000E94B801219681E0C030D80779F7DF918B
:10035000CF91089580E191E062E60E94B101089595
:100360000895FC01608387E591E00E94BD02089535
:100370000F931F93CF93DF93FC01EB01142F009198
:10038000B8008CE08093B80087E591E060810E941E
:10039000F401112321F087E591E060E603C087E5D1
:1003A00091E060E40E947602BE0194E07695679544
:1003B0009A95E1F787E591E00E94760284E0CC0F00
:1003C000DD1F8A95E1F7D07087E591E06C2F0E94E0
:1003D000760287E591E00E94B9020093B800DF91B0
:1003E000CF911F910F91089581E080935601609302
:1003F0003301109254011092550108952091320159
:1004000030E080913101281B3109C90108954091E4
:10041000310180913201481718F02FEF3FEF0AC0E9
:10042000E42FF0E0EF5EFE4F8081282F30E04F5F39
:1004300040933101C9010895E09131018091320169
:10044000E81718F0EFEFFFEF06C0F0E0EF5EFE4FA9
:100450008081E82FF0E0CF010895089510925A01AD
:100460001092590188EE93E0A0E0B0E080935B0128
:1004700090935C01A0935D01B0935E0184E091E0F4
:1004800090935801809357010895CF92DF92EF9295
:10049000FF920F931F93CF93DF937C016B018A012F
:1004A000809156018823A1F0C0E0D0E00DC0D701B3
:1004B000ED91FC91D601AC0FBD1F0190F081E02DB4
:1004C000C7016C9109952196C017D10780F304C02C
:1004D000CB01642F0E941D03C801DF91CF911F91B2
:1004E0000F91FF90EF90DF90CF900895DF93CF931F
:1004F0000F92CDB7DEB7FC01698380915601882346
:10050000C9F080915501803238F081E090E093830A
:10051000828320E030E015C080915401E82FF0E0A4
:10052000EC5CFE4F998190838F5F809354018093A0
:10053000550105C0CE01019661E00E941D0321E036
:1005400030E0C9010F90CF91DF9108950F93062FEE
:100550008091330164E371E04091550121E00E94F4
:10056000C8021092540110925501109256010F9139
:10057000089561E00E94A602089510923101109240
:10058000320110925401109255010E94C90408953D
:100590000F931F93582F122F413210F081E04AC061
:1005A000809163018823E1F782E0809363010093E7
:1005B00065018FEF8093D00110928B0140938C01E5
:1005C000ABE6B1E0FB0102C081918D938E2F861BBB
:1005D0008417D0F31092640180916401550F852B2C
:1005E0008093640180916601813041F4109266012C
:1005F000809164018093BB0085EC01C085EE8093FF
:10060000BC00112321F0809163018230E1F38091DD
:10061000D0018F3F11F480E00DC08091D001803275
:1006200011F482E007C08091D001803311F084E0A2
:1006300001C083E01F910F910895482F613210F09F
:1006400081E0089580916301843011F082E0089583
:100650006093AE01ADE8B1E0842F9C01F90102C0C6
:1006600081918D938E2F841B8617D0F380E008959F
:100670001F920F920FB60F9211242F933F934F9317
:100680005F936F937F938F939F93AF93BF93EF93FA
:10069000FF938091B90090E0887F9070803691053B
:1006A00009F4F2C081369105CCF58832910509F440
:1006B0007BC089329105B4F48031910509F46FC093
:1006C000813191053CF4009709F447C1089709F07E
:1006D0004FC165C08831910509F466C0809709F063
:1006E00047C182C08034910509F4A4C081349105CA
:1006F00044F48033910509F482C0C89709F038C1E9
:1007000089C08035910509F489C08835910509F4BF
:1007100096C08834910509F02BC1AEC08839910587
:1007200009F413C189399105ECF48837910509F46E
:10073000ABC0893791054CF48836910509F4A4C003
:100740008037910509F014C19FC08838910509F4DC
:10075000FCC08039910509F49DC08038910509F0ED
:1007600007C198C0803B910509F4C6C0813B910543
:100770004CF4803A910509F49FC0883A910509F03C
:10078000F7C0BAC0803C910509F4E3C0883C9105EC
:1007900009F4DFC0883B910509F0EAC0C2C080912E
:1007A00064018093BB00CFC090918B0180918C013C
:1007B000981768F490918B01E92FF0E0E559FE4F0E
:1007C00080818093BB009F5F90938B01BCC0809120
:1007D0006501882309F44BC085ED8093BC008091AE
:1007E000BC0084FDFCCFC2C080E28093D00185EDC7
:1007F0008093BC008091BC0084FDFCCFB7C080E337
:100800008093D00185ED8093BC008091BC0084FD75
:10081000FCCFACC088E38093D0019BC080918B015A
:100820009091BB00E82FF0E0E559FE4F90838F5F79
:1008300080938B0190918B0180918C0182C080917B
:100840008B019091BB00E82FF0E0E559FE4F9083BB
:100850008F5F80938B0180916501882341F085ED46
:100860008093BC008091BC0084FDFCCF7FC081E000
:100870008093660184EA6EC085ED8093BC00809110
:10088000BC0084FDFCCF72C083E0809363011092B2
:10089000CF0159C08091CF01803208F056C08091BD
:1008A000CF019091BB00E82FF0E0E155FE4F90831F
:1008B0008F5F8093CF0147C08091CF01803230F4A9
:1008C000E091CF01F0E0E155FE4F108285ED80937D
:1008D000BC008091BC0084FDFCCF1092630160914C
:1008E000CF01E0916901F0916A018FEA91E070E037
:1008F00009951092CF012DC084E08093630110927E
:10090000AD011092AE01E0916701F0916801099587
:100910008091AE01882329F481E08093AE0110928A
:100920008D019091AD01E92FF0E0E357FE4F8081FA
:100930008093BB009F5F9093AD019091AD0180913A
:10094000AE01981710F485EC01C085E88093BC00D7
:100950000FC085EC8093BC0009C01092D00185EDDA
:100960008093BC008091BC0084FDFCCF1092630199
:10097000FF91EF91BF91AF919F918F917F916F9177
:100980005F914F913F912F910F900FBE0F901F904D
:1009900018951092630181E08093650110926601C1
:1009A00082E161E00E94A60583E161E00E94A60564
:1009B000E9EBF0E080818E7F808380818D7F808372
:1009C00088E48093B80085E48093BC000895CF93B9
:1009D000DF930E943E050E94AA01C0E0D0E00E9481
:1009E00092012097E1F30E940000F9CF1F920F922D
:1009F0000FB60F9211242F933F938F939F93AF9332
:100A0000BF938091D5019091D601A091D701B0916B
:100A1000D8013091D9010196A11DB11D232F2D5F61
:100A20002D3720F02D570196A11DB11D2093D9011E
:100A30008093D5019093D601A093D701B093D801AC
:100A40008091D1019091D201A091D301B091D401B4
:100A50000196A11DB11D8093D1019093D201A09365
:100A6000D301B093D401BF91AF919F918F913F91EA
:100A70002F910F900FBE0F901F901895789484B50A
:100A8000826084BD84B5816084BD85B5826085BD8A
:100A900085B5816085BDEEE6F0E080818160808370
:100AA000E1E8F0E010828081826080838081816053
:100AB0008083E0E8F0E0808181608083E1EBF0E01A
:100AC000808184608083E0EBF0E0808181608083BE
:100AD000EAE7F0E0808184608083808182608083A7
:100AE0008081816080838081806880831092C100D2
:100AF0000895833071F0843028F48130A1F0823081
:100B000021F514C08630B1F08730D1F08430E9F49B
:100B100004C0809180008F7703C0809180008F7D1A
:100B200080938000089584B58F7702C084B58F7D4F
:100B300084BD08958091B0008F778093B0000895B0
:100B40008091B0008F7D8093B0000895FF920F9345
:100B50001F93F62E482F50E0CA0182559D4FFC018D
:100B60002491CA0186569D4FFC0114914A575D4F4E
:100B7000FA0104910023C9F0222319F0822F0E9468
:100B80007905E02FF0E0EE0FFF1FEE58FD4FA59125
:100B9000B4919FB7F894FF2021F48C911095812394
:100BA00002C08C91812B8C939FBF1F910F91FF905E
:100BB0000895EE0FFF1F0590F491E02D0994F8942D
:020BC000FFCF65
:100BC2000000000076024502FE0107021C022D020F
:00000001FF
